{
  "contractName": "Polling",
  "abi": [
    {
      "inputs": [],
      "stateMutability": "nonpayable",
      "type": "constructor"
    },
    {
      "inputs": [
        {
          "internalType": "address",
          "name": "",
          "type": "address"
        },
        {
          "internalType": "uint256",
          "name": "",
          "type": "uint256"
        }
      ],
      "name": "pollIdOfSponsor",
      "outputs": [
        {
          "internalType": "bytes32",
          "name": "",
          "type": "bytes32"
        }
      ],
      "stateMutability": "view",
      "type": "function"
    },
    {
      "inputs": [
        {
          "internalType": "address",
          "name": "",
          "type": "address"
        },
        {
          "internalType": "uint256",
          "name": "",
          "type": "uint256"
        }
      ],
      "name": "pollIdOfVoter",
      "outputs": [
        {
          "internalType": "bytes32",
          "name": "",
          "type": "bytes32"
        }
      ],
      "stateMutability": "view",
      "type": "function"
    },
    {
      "inputs": [
        {
          "internalType": "uint256",
          "name": "",
          "type": "uint256"
        }
      ],
      "name": "pollList",
      "outputs": [
        {
          "internalType": "bytes32",
          "name": "",
          "type": "bytes32"
        }
      ],
      "stateMutability": "view",
      "type": "function"
    },
    {
      "inputs": [],
      "name": "totalPollsCount",
      "outputs": [
        {
          "internalType": "uint256",
          "name": "",
          "type": "uint256"
        }
      ],
      "stateMutability": "view",
      "type": "function"
    },
    {
      "inputs": [
        {
          "internalType": "string",
          "name": "_topic",
          "type": "string"
        },
        {
          "internalType": "string",
          "name": "_description",
          "type": "string"
        },
        {
          "internalType": "bytes32[]",
          "name": "_options",
          "type": "bytes32[]"
        },
        {
          "internalType": "uint256",
          "name": "_expiredBlock",
          "type": "uint256"
        }
      ],
      "name": "sponsorRaisesAPoll",
      "outputs": [
        {
          "internalType": "bool",
          "name": "",
          "type": "bool"
        }
      ],
      "stateMutability": "nonpayable",
      "type": "function"
    },
    {
      "inputs": [
        {
          "internalType": "bytes32",
          "name": "_pollId",
          "type": "bytes32"
        },
        {
          "internalType": "bytes32",
          "name": "_choice",
          "type": "bytes32"
        }
      ],
      "name": "voterVotesAPoll",
      "outputs": [
        {
          "internalType": "bool",
          "name": "",
          "type": "bool"
        }
      ],
      "stateMutability": "nonpayable",
      "type": "function"
    },
    {
      "inputs": [
        {
          "internalType": "bytes32",
          "name": "_pollId",
          "type": "bytes32"
        }
      ],
      "name": "getPollInformation",
      "outputs": [
        {
          "internalType": "string",
          "name": "_topic",
          "type": "string"
        },
        {
          "internalType": "string",
          "name": "_description",
          "type": "string"
        },
        {
          "internalType": "address",
          "name": "_sponsor",
          "type": "address"
        },
        {
          "internalType": "bytes32[]",
          "name": "_options",
          "type": "bytes32[]"
        },
        {
          "internalType": "address[]",
          "name": "_voters",
          "type": "address[]"
        },
        {
          "internalType": "uint256",
          "name": "_expiredBlock",
          "type": "uint256"
        },
        {
          "internalType": "bool",
          "name": "_expired",
          "type": "bool"
        }
      ],
      "stateMutability": "view",
      "type": "function"
    },
    {
      "inputs": [
        {
          "internalType": "bytes32",
          "name": "_pollId",
          "type": "bytes32"
        }
      ],
      "name": "isPollExpired",
      "outputs": [
        {
          "internalType": "bool",
          "name": "_expired",
          "type": "bool"
        }
      ],
      "stateMutability": "view",
      "type": "function"
    },
    {
      "inputs": [],
      "name": "getPollList",
      "outputs": [
        {
          "internalType": "bytes32[]",
          "name": "",
          "type": "bytes32[]"
        }
      ],
      "stateMutability": "view",
      "type": "function"
    },
    {
      "inputs": [],
      "name": "getSponsorsPollList",
      "outputs": [
        {
          "internalType": "bytes32[]",
          "name": "",
          "type": "bytes32[]"
        }
      ],
      "stateMutability": "view",
      "type": "function"
    },
    {
      "inputs": [],
      "name": "getVotersPollList",
      "outputs": [
        {
          "internalType": "bytes32[]",
          "name": "",
          "type": "bytes32[]"
        }
      ],
      "stateMutability": "view",
      "type": "function"
    },
    {
      "inputs": [
        {
          "internalType": "bytes32",
          "name": "_pollId",
          "type": "bytes32"
        }
      ],
      "name": "getVotersChoice",
      "outputs": [
        {
          "internalType": "bytes32",
          "name": "",
          "type": "bytes32"
        }
      ],
      "stateMutability": "view",
      "type": "function"
    },
    {
      "inputs": [
        {
          "internalType": "bytes32",
          "name": "_pollId",
          "type": "bytes32"
        }
      ],
      "name": "isVoted",
      "outputs": [
        {
          "internalType": "bool",
          "name": "",
          "type": "bool"
        }
      ],
      "stateMutability": "view",
      "type": "function"
    },
    {
      "inputs": [
        {
          "internalType": "bytes32",
          "name": "_pollId",
          "type": "bytes32"
        },
        {
          "internalType": "bytes32",
          "name": "_choice",
          "type": "bytes32"
        }
      ],
      "name": "isOptionBelongToPoll",
      "outputs": [
        {
          "internalType": "bool",
          "name": "",
          "type": "bool"
        }
      ],
      "stateMutability": "view",
      "type": "function"
    }
  ],
  "bytecode": "0x608060405234801561001057600080fd5b506000600781905550611a28806100286000396000f3fe608060405234801561001057600080fd5b50600436106100ea5760003560e01c80636a506c221161008c578063b98f441111610066578063b98f441114610675578063e7e3922e146106c5578063f5355d8b14610707578063fbe2a8b114610769576100ea565b80636a506c22146102e95780638e62df431461034857806397a69e121461048d576100ea565b806322659057116100c857806322659057146101f3578063343c68e6146102435780634748d770146102895780634963a092146102cb576100ea565b80630179ae0f146100ef5780631163fd2d1461014e5780631776494e14610194575b600080fd5b6100f76107cb565b6040518080602001828103825283818151815260200191508051906020019060200280838360005b8381101561013a57808201518184015260208101905061011f565b505050509050019250505060405180910390f35b61017a6004803603602081101561016457600080fd5b8101908080359060200190929190505050610860565b604051808215151515815260200191505060405180910390f35b61019c6108c7565b6040518080602001828103825283818151815260200191508051906020019060200280838360005b838110156101df5780820151818401526020810190506101c4565b505050509050019250505060405180910390f35b6102296004803603604081101561020957600080fd5b81019080803590602001909291908035906020019092919050505061095c565b604051808215151515815260200191505060405180910390f35b61026f6004803603602081101561025957600080fd5b8101908080359060200190929190505050610dd0565b604051808215151515815260200191505060405180910390f35b6102b56004803603602081101561029f57600080fd5b8101908080359060200190929190505050610df2565b6040518082815260200191505060405180910390f35b6102d3610e4c565b6040518082815260200191505060405180910390f35b6102f1610e52565b6040518080602001828103825283818151815260200191508051906020019060200280838360005b83811015610334578082015181840152602081019050610319565b505050509050019250505060405180910390f35b6104736004803603608081101561035e57600080fd5b810190808035906020019064010000000081111561037b57600080fd5b82018360208201111561038d57600080fd5b803590602001918460018302840111640100000000831117156103af57600080fd5b9091929391929390803590602001906401000000008111156103d057600080fd5b8201836020820111156103e257600080fd5b8035906020019184600183028401116401000000008311171561040457600080fd5b90919293919293908035906020019064010000000081111561042557600080fd5b82018360208201111561043757600080fd5b8035906020019184602083028401116401000000008311171561045957600080fd5b909192939192939080359060200190929190505050610eaa565b604051808215151515815260200191505060405180910390f35b6104b9600480360360208110156104a357600080fd5b810190808035906020019092919050505061140c565b6040518080602001806020018873ffffffffffffffffffffffffffffffffffffffff1673ffffffffffffffffffffffffffffffffffffffff16815260200180602001806020018781526020018615151515815260200185810385528c818151815260200191508051906020019080838360005b8381101561054757808201518184015260208101905061052c565b50505050905090810190601f1680156105745780820380516001836020036101000a031916815260200191505b5085810384528b818151815260200191508051906020019080838360005b838110156105ad578082015181840152602081019050610592565b50505050905090810190601f1680156105da5780820380516001836020036101000a031916815260200191505b50858103835289818151815260200191508051906020019060200280838360005b838110156106165780820151818401526020810190506105fb565b50505050905001858103825288818151815260200191508051906020019060200280838360005b8381101561065857808201518184015260208101905061063d565b505050509050019b50505050505050505050505060405180910390f35b6106ab6004803603604081101561068b57600080fd5b810190808035906020019092919080359060200190929190505050611709565b604051808215151515815260200191505060405180910390f35b6106f1600480360360208110156106db57600080fd5b8101908080359060200190929190505050611745565b6040518082815260200191505060405180910390f35b6107536004803603604081101561071d57600080fd5b81019080803573ffffffffffffffffffffffffffffffffffffffff16906020019092919080359060200190929190505050611766565b6040518082815260200191505060405180910390f35b6107b56004803603604081101561077f57600080fd5b81019080803573ffffffffffffffffffffffffffffffffffffffff16906020019092919080359060200190929190505050611794565b6040518082815260200191505060405180910390f35b6060600160003373ffffffffffffffffffffffffffffffffffffffff1673ffffffffffffffffffffffffffffffffffffffff16815260200190815260200160002080548060200260200160405190810160405280929190818152602001828054801561085657602002820191906000526020600020905b815481526020019060010190808311610842575b5050505050905090565b6000600560003373ffffffffffffffffffffffffffffffffffffffff1673ffffffffffffffffffffffffffffffffffffffff168152602001908152602001600020600083815260200190815260200160002060009054906101000a900460ff169050919050565b6060600360003373ffffffffffffffffffffffffffffffffffffffff1673ffffffffffffffffffffffffffffffffffffffff16815260200190815260200160002080548060200260200160405190810160405280929190818152602001828054801561095257602002820191906000526020600020905b81548152602001906001019080831161093e575b5050505050905090565b60008073ffffffffffffffffffffffffffffffffffffffff1660008085815260200190815260200160002060010160009054906101000a900473ffffffffffffffffffffffffffffffffffffffff1673ffffffffffffffffffffffffffffffffffffffff161415610a35576040517f08c379a00000000000000000000000000000000000000000000000000000000081526004018080602001828103825260128152602001807f506f6c6c2069736e27742065786973746564000000000000000000000000000081525060200191505060405180910390fd5b60066000848152602001908152602001600020600083815260200190815260200160002060009054906101000a900460ff16610ad9576040517f08c379a000000000000000000000000000000000000000000000000000000000815260040180806020018281038252601d8152602001807f506f6c6c20646f65736e2774206861766520737563682063686f69636500000081525060200191505060405180910390fd5b610ae283610dd0565b15610b55576040517f08c379a000000000000000000000000000000000000000000000000000000000815260040180806020018281038252600f8152602001807f506f6c6c2069732065787069726564000000000000000000000000000000000081525060200191505060405180910390fd5b6000339050600560008273ffffffffffffffffffffffffffffffffffffffff1673ffffffffffffffffffffffffffffffffffffffff168152602001908152602001600020600085815260200190815260200160002060009054906101000a900460ff1615610c2b576040517f08c379a00000000000000000000000000000000000000000000000000000000081526004018080602001828103825260168152602001807f596f7527766520706f6c6c656420666f7220746869730000000000000000000081525060200191505060405180910390fd5b600080858152602001908152602001600020600501819080600181540180825580915050600190039060005260206000200160009091909190916101000a81548173ffffffffffffffffffffffffffffffffffffffff021916908373ffffffffffffffffffffffffffffffffffffffff1602179055506001600560008373ffffffffffffffffffffffffffffffffffffffff1673ffffffffffffffffffffffffffffffffffffffff168152602001908152602001600020600086815260200190815260200160002060006101000a81548160ff021916908315150217905550600360008273ffffffffffffffffffffffffffffffffffffffff1673ffffffffffffffffffffffffffffffffffffffff16815260200190815260200160002084908060018154018082558091505060019003906000526020600020016000909190919091505582600460008373ffffffffffffffffffffffffffffffffffffffff1673ffffffffffffffffffffffffffffffffffffffff168152602001908152602001600020600086815260200190815260200160002081905550600191505092915050565b6000806000838152602001908152602001600020600401544310159050919050565b6000600460003373ffffffffffffffffffffffffffffffffffffffff1673ffffffffffffffffffffffffffffffffffffffff1681526020019081526020016000206000838152602001908152602001600020549050919050565b60075481565b60606008805480602002602001604051908101604052809291908181526020018280548015610ea057602002820191906000526020600020905b815481526020019060010190808311610e8c575b5050505050905090565b6000438211610f21576040517f08c379a00000000000000000000000000000000000000000000000000000000081526004018080602001828103825260158152602001807f496e76616c6964206578706972656420626c6f636b000000000000000000000081525060200191505060405180910390fd5b6000339050600060075490506001600760008282540192505081905550600082828c8c88604051602001808673ffffffffffffffffffffffffffffffffffffffff1673ffffffffffffffffffffffffffffffffffffffff1660601b81526014018581526020018484808284378083019250505082815260200195505050505050604051602081830303815290604052805190602001209050600260008473ffffffffffffffffffffffffffffffffffffffff1673ffffffffffffffffffffffffffffffffffffffff168152602001908152602001600020600082815260200190815260200160002060009054906101000a900460ff161561108a576040517f08c379a000000000000000000000000000000000000000000000000000000000815260040180806020018281038252600f8152602001807f506f6c6c2069732065786973746564000000000000000000000000000000000081525060200191505060405180910390fd5b6110926117c2565b8b8b8080601f016020809104026020016040519081016040528093929190818152602001838380828437600081840152601f19601f82011690508083019250505050505050816000018190525083816020019073ffffffffffffffffffffffffffffffffffffffff16908173ffffffffffffffffffffffffffffffffffffffff168152505089898080601f016020809104026020016040519081016040528093929190818152602001838380828437600081840152601f19601f820116905080830192505050505050508160400181905250878780806020026020016040519081016040528093929190818152602001838360200280828437600081840152601f19601f820116905080830192505050505050508160600181905250858160800181815250508060008084815260200190815260200160002060008201518160000190805190602001906111e792919061180e565b5060208201518160010160006101000a81548173ffffffffffffffffffffffffffffffffffffffff021916908373ffffffffffffffffffffffffffffffffffffffff160217905550604082015181600201908051906020019061124b92919061180e565b50606082015181600301908051906020019061126892919061188e565b506080820151816004015560a082015181600501908051906020019061128f9291906118db565b50905050600160008573ffffffffffffffffffffffffffffffffffffffff1673ffffffffffffffffffffffffffffffffffffffff1681526020019081526020016000208290806001815401808255809150506001900390600052602060002001600090919091909150556001600260008673ffffffffffffffffffffffffffffffffffffffff1673ffffffffffffffffffffffffffffffffffffffff168152602001908152602001600020600084815260200190815260200160002060006101000a81548160ff02191690831515021790555060008090505b888890508110156113cf5760016006600085815260200190815260200160002060008b8b8581811061139657fe5b90506020020135815260200190815260200160002060006101000a81548160ff0219169083151502179055508080600101915050611368565b5060088290806001815401808255809150506001900390600052602060002001600090919091909150556001945050505050979650505050505050565b606080600060608060008061141f6117c2565b6000808a81526020019081526020016000206040518060c0016040529081600082018054600181600116156101000203166002900480601f0160208091040260200160405190810160405280929190818152602001828054600181600116156101000203166002900480156114d55780601f106114aa576101008083540402835291602001916114d5565b820191906000526020600020905b8154815290600101906020018083116114b857829003601f168201915b505050505081526020016001820160009054906101000a900473ffffffffffffffffffffffffffffffffffffffff1673ffffffffffffffffffffffffffffffffffffffff1673ffffffffffffffffffffffffffffffffffffffff168152602001600282018054600181600116156101000203166002900480601f0160208091040260200160405190810160405280929190818152602001828054600181600116156101000203166002900480156115cd5780601f106115a2576101008083540402835291602001916115cd565b820191906000526020600020905b8154815290600101906020018083116115b057829003601f168201915b505050505081526020016003820180548060200260200160405190810160405280929190818152602001828054801561162557602002820191906000526020600020905b815481526020019060010190808311611611575b5050505050815260200160048201548152602001600582018054806020026020016040519081016040528092919081815260200182805480156116bd57602002820191906000526020600020905b8160009054906101000a900473ffffffffffffffffffffffffffffffffffffffff1673ffffffffffffffffffffffffffffffffffffffff1681526020019060010190808311611673575b5050505050815250509050806000015197508060400151965080602001519550806060015194508060a001519350806080015192506116fb89610dd0565b915050919395979092949650565b600060066000848152602001908152602001600020600083815260200190815260200160002060009054906101000a900460ff16905092915050565b6008818154811061175257fe5b906000526020600020016000915090505481565b6003602052816000526040600020818154811061177f57fe5b90600052602060002001600091509150505481565b600160205281600052604060002081815481106117ad57fe5b90600052602060002001600091509150505481565b6040518060c0016040528060608152602001600073ffffffffffffffffffffffffffffffffffffffff168152602001606081526020016060815260200160008152602001606081525090565b828054600181600116156101000203166002900490600052602060002090601f016020900481019282601f1061184f57805160ff191683800117855561187d565b8280016001018555821561187d579182015b8281111561187c578251825591602001919060010190611861565b5b50905061188a9190611965565b5090565b8280548282559060005260206000209081019282156118ca579160200282015b828111156118c95782518255916020019190600101906118ae565b5b5090506118d7919061198a565b5090565b828054828255906000526020600020908101928215611954579160200282015b828111156119535782518260006101000a81548173ffffffffffffffffffffffffffffffffffffffff021916908373ffffffffffffffffffffffffffffffffffffffff160217905550916020019190600101906118fb565b5b50905061196191906119af565b5090565b61198791905b8082111561198357600081600090555060010161196b565b5090565b90565b6119ac91905b808211156119a8576000816000905550600101611990565b5090565b90565b6119ef91905b808211156119eb57600081816101000a81549073ffffffffffffffffffffffffffffffffffffffff0219169055506001016119b5565b5090565b9056fea26469706673582212203e9ed30902bf4111f20c5a7b87c1e787ac45668e88ce5fe9c148f26526d5e37f64736f6c634300060b0033",
  "immutableReferences": {},
  "source": "// SPDX-License-Identifier: MIT\npragma solidity >=0.4.22 <0.8.0;\n\ncontract Polling {\n    struct Poll {\n        string topic;\n        address sponsor;\n        string description;\n        bytes32[] options;\n        uint256 expiredBlock;\n        address[] voters;\n    }\n\n    // track poll by poll id\n    mapping(bytes32 => Poll) private polls;\n    // track poll id for sponsors\n    mapping(address => bytes32[]) public pollIdOfSponsor;\n    mapping(address => mapping(bytes32 => bool)) private sponsorRaised;\n    // track poll id being polled by voter\n    mapping(address => bytes32[]) public pollIdOfVoter;\n    mapping(address => mapping(bytes32 => bytes32)) private choiceOfVoter;\n    mapping(address => mapping(bytes32 => bool)) private voterPolled;\n    \n    mapping(bytes32 => mapping(bytes32 => bool)) private optionRegistry;\n\n    uint256 public totalPollsCount;\n    bytes32[] public pollList;\n\n    constructor() public {\n        totalPollsCount = 0;\n    }\n\n    function sponsorRaisesAPoll(\n        string calldata _topic,\n        string calldata _description,\n        bytes32[] calldata _options,\n        uint256 _expiredBlock\n    ) external returns (bool) {\n        require(_expiredBlock > block.number, \"Invalid expired block\");\n\n        address _sponsor = msg.sender;\n\n        uint256 _totalPollsCount = totalPollsCount;\n        totalPollsCount += 1;\n\n        bytes32 _pollId = keccak256(\n            abi.encodePacked(_sponsor, _totalPollsCount, _topic, _expiredBlock)\n        );\n\n        require(!sponsorRaised[_sponsor][_pollId], \"Poll is existed\");\n\n        Poll memory _poll;\n        _poll.topic = _topic;\n        _poll.sponsor = _sponsor;\n        _poll.description = _description;\n        _poll.options = _options;\n        _poll.expiredBlock = _expiredBlock;\n\n        polls[_pollId] = _poll;\n        pollIdOfSponsor[_sponsor].push(_pollId);\n        sponsorRaised[_sponsor][_pollId] = true;\n\n        for (uint i=0; i<_options.length; i++) {\n            optionRegistry[_pollId][_options[i]] = true;\n        }\n\n        pollList.push(_pollId);\n\n        return true;\n    }\n\n    function voterVotesAPoll(bytes32 _pollId, bytes32 _choice) external returns (bool) {\n        require(polls[_pollId].sponsor != address(0), \"Poll isn't existed\");\n        require(optionRegistry[_pollId][_choice], \"Poll doesn't have such choice\");\n        require(!isPollExpired(_pollId), \"Poll is expired\");\n\n        address _voter = msg.sender;\n        require(!voterPolled[_voter][_pollId], \"You've polled for this\");\n\n        polls[_pollId].voters.push(_voter);\n        // pollIdOfVoter[_voter].push(_pollId);\n        voterPolled[_voter][_pollId] = true;\n\n        \n        pollIdOfVoter[_voter].push(_pollId);\n        choiceOfVoter[_voter][_pollId] =_choice;\n        return true;\n    }\n\n    function getPollInformation(bytes32 _pollId)\n        public\n        view\n        returns (\n            string memory _topic,\n            string memory _description,\n            address _sponsor,\n            bytes32[] memory _options,\n            address[] memory _voters,\n            uint256 _expiredBlock,\n            bool _expired\n        )\n    {\n        Poll memory poll = polls[_pollId];\n\n        _topic = poll.topic;\n        _description = poll.description;\n        _sponsor = poll.sponsor;\n        _options = poll.options;\n        _voters = poll.voters;\n        _expiredBlock = poll.expiredBlock;\n        _expired = isPollExpired(_pollId);\n    }\n\n    function isPollExpired(bytes32 _pollId)\n        public\n        view\n        returns (bool _expired)\n    {\n        _expired = block.number >= polls[_pollId].expiredBlock;\n    }\n\n    function getPollList() public view returns (bytes32[] memory) {\n        return pollList;\n    }\n\n    function getSponsorsPollList() public view returns (bytes32[] memory) {\n        return pollIdOfSponsor[msg.sender];\n    }\n\n    function getVotersPollList() public view returns (bytes32[] memory) {\n        return pollIdOfVoter[msg.sender];\n    }\n\n    function getVotersChoice(bytes32 _pollId) public view returns (bytes32) {\n        return choiceOfVoter[msg.sender][_pollId];\n    }\n\n    function isVoted(bytes32 _pollId) public view returns (bool) {\n        return voterPolled[msg.sender][_pollId];\n    }\n\n    function isOptionBelongToPoll(bytes32 _pollId, bytes32 _choice) public view returns (bool) {\n        return optionRegistry[_pollId][_choice];\n    }\n}\n",
  "sourcePath": "/Users/kobechao/projects/Polling/contracts/Polling.sol",
  "compiler": {
    "name": "solc",
    "version": "0.6.11+commit.5ef660b1.Emscripten.clang"
  },
  "schemaVersion": "3.3.3",
  "updatedAt": "2020-12-22T08:32:26.450Z",
  "devdoc": {
    "kind": "dev",
    "methods": {},
    "version": 1
  },
  "userdoc": {
    "kind": "user",
    "methods": {},
    "version": 1
  }
}