{
  "contractName": "Polling",
  "abi": [
    {
      "inputs": [],
      "stateMutability": "nonpayable",
      "type": "constructor"
    },
    {
      "inputs": [
        {
          "internalType": "address",
          "name": "",
          "type": "address"
        },
        {
          "internalType": "uint256",
          "name": "",
          "type": "uint256"
        }
      ],
      "name": "pollIdOfSponsor",
      "outputs": [
        {
          "internalType": "bytes32",
          "name": "",
          "type": "bytes32"
        }
      ],
      "stateMutability": "view",
      "type": "function",
      "constant": true
    },
    {
      "inputs": [
        {
          "internalType": "address",
          "name": "",
          "type": "address"
        },
        {
          "internalType": "uint256",
          "name": "",
          "type": "uint256"
        }
      ],
      "name": "pollIdOfVoter",
      "outputs": [
        {
          "internalType": "bytes32",
          "name": "",
          "type": "bytes32"
        }
      ],
      "stateMutability": "view",
      "type": "function",
      "constant": true
    },
    {
      "inputs": [],
      "name": "totalPollsCount",
      "outputs": [
        {
          "internalType": "uint256",
          "name": "",
          "type": "uint256"
        }
      ],
      "stateMutability": "view",
      "type": "function",
      "constant": true
    },
    {
      "inputs": [
        {
          "internalType": "string",
          "name": "_topic",
          "type": "string"
        },
        {
          "internalType": "string",
          "name": "_description",
          "type": "string"
        },
        {
          "internalType": "bytes32[]",
          "name": "_options",
          "type": "bytes32[]"
        },
        {
          "internalType": "uint256",
          "name": "_expiredBlock",
          "type": "uint256"
        }
      ],
      "name": "sponsorRaisesAPoll",
      "outputs": [
        {
          "internalType": "bool",
          "name": "",
          "type": "bool"
        }
      ],
      "stateMutability": "nonpayable",
      "type": "function"
    },
    {
      "inputs": [
        {
          "internalType": "bytes32",
          "name": "_pollId",
          "type": "bytes32"
        },
        {
          "internalType": "bytes32",
          "name": "_option",
          "type": "bytes32"
        }
      ],
      "name": "voterVotesAPoll",
      "outputs": [
        {
          "internalType": "bool",
          "name": "",
          "type": "bool"
        }
      ],
      "stateMutability": "nonpayable",
      "type": "function"
    },
    {
      "inputs": [
        {
          "internalType": "bytes32",
          "name": "_pollId",
          "type": "bytes32"
        }
      ],
      "name": "getPollInformation",
      "outputs": [
        {
          "internalType": "string",
          "name": "_topic",
          "type": "string"
        },
        {
          "internalType": "string",
          "name": "_description",
          "type": "string"
        },
        {
          "internalType": "address",
          "name": "_sponsor",
          "type": "address"
        },
        {
          "internalType": "bytes32[]",
          "name": "_options",
          "type": "bytes32[]"
        },
        {
          "internalType": "address[]",
          "name": "_voters",
          "type": "address[]"
        },
        {
          "internalType": "uint256",
          "name": "_expiredBlock",
          "type": "uint256"
        },
        {
          "internalType": "bool",
          "name": "_expired",
          "type": "bool"
        }
      ],
      "stateMutability": "view",
      "type": "function",
      "constant": true
    },
    {
      "inputs": [],
      "name": "getPollList",
      "outputs": [
        {
          "internalType": "bytes32[]",
          "name": "",
          "type": "bytes32[]"
        }
      ],
      "stateMutability": "view",
      "type": "function",
      "constant": true
    },
    {
      "inputs": [
        {
          "internalType": "bytes32",
          "name": "_pollId",
          "type": "bytes32"
        },
        {
          "internalType": "bytes32",
          "name": "_option",
          "type": "bytes32"
        }
      ],
      "name": "getPollVoters",
      "outputs": [
        {
          "internalType": "address[]",
          "name": "",
          "type": "address[]"
        }
      ],
      "stateMutability": "view",
      "type": "function",
      "constant": true
    },
    {
      "inputs": [],
      "name": "getSponsorsPollList",
      "outputs": [
        {
          "internalType": "bytes32[]",
          "name": "",
          "type": "bytes32[]"
        }
      ],
      "stateMutability": "view",
      "type": "function",
      "constant": true
    },
    {
      "inputs": [],
      "name": "getVotersPollList",
      "outputs": [
        {
          "internalType": "bytes32[]",
          "name": "",
          "type": "bytes32[]"
        }
      ],
      "stateMutability": "view",
      "type": "function",
      "constant": true
    },
    {
      "inputs": [
        {
          "internalType": "bytes32",
          "name": "_pollId",
          "type": "bytes32"
        }
      ],
      "name": "getVotersOption",
      "outputs": [
        {
          "internalType": "bytes32",
          "name": "",
          "type": "bytes32"
        }
      ],
      "stateMutability": "view",
      "type": "function",
      "constant": true
    },
    {
      "inputs": [
        {
          "internalType": "bytes32",
          "name": "_pollId",
          "type": "bytes32"
        }
      ],
      "name": "isPollExpired",
      "outputs": [
        {
          "internalType": "bool",
          "name": "",
          "type": "bool"
        }
      ],
      "stateMutability": "view",
      "type": "function",
      "constant": true
    },
    {
      "inputs": [
        {
          "internalType": "bytes32",
          "name": "_pollId",
          "type": "bytes32"
        }
      ],
      "name": "isVoted",
      "outputs": [
        {
          "internalType": "bool",
          "name": "",
          "type": "bool"
        }
      ],
      "stateMutability": "view",
      "type": "function",
      "constant": true
    },
    {
      "inputs": [
        {
          "internalType": "bytes32",
          "name": "_pollId",
          "type": "bytes32"
        },
        {
          "internalType": "bytes32",
          "name": "_option",
          "type": "bytes32"
        }
      ],
      "name": "isOptionBelongToPoll",
      "outputs": [
        {
          "internalType": "bool",
          "name": "",
          "type": "bool"
        }
      ],
      "stateMutability": "view",
      "type": "function",
      "constant": true
    }
  ],
  "bytecode": "0x608060405234801561001057600080fd5b506000600781905550611a5f806100286000396000f3fe608060405234801561001057600080fd5b50600436106100ea5760003560e01c8063811a3a911161008c57806397a69e121161006657806397a69e121461051a578063b98f441114610702578063f5355d8b14610752578063fbe2a8b1146107b4576100ea565b8063811a3a9114610306578063872ab3ed146103935780638e62df43146103d5576100ea565b806322659057116100c857806322659057146101f3578063343c68e6146102435780634963a092146102895780636a506c22146102a7576100ea565b80630179ae0f146100ef5780631163fd2d1461014e5780631776494e14610194575b600080fd5b6100f7610816565b6040518080602001828103825283818151815260200191508051906020019060200280838360005b8381101561013a57808201518184015260208101905061011f565b505050509050019250505060405180910390f35b61017a6004803603602081101561016457600080fd5b81019080803590602001909291905050506108ab565b604051808215151515815260200191505060405180910390f35b61019c610912565b6040518080602001828103825283818151815260200191508051906020019060200280838360005b838110156101df5780820151818401526020810190506101c4565b505050509050019250505060405180910390f35b6102296004803603604081101561020957600080fd5b8101908080359060200190929190803590602001909291905050506109a7565b604051808215151515815260200191505060405180910390f35b61026f6004803603602081101561025957600080fd5b8101908080359060200190929190505050610ea6565b604051808215151515815260200191505060405180910390f35b610291610ec8565b6040518082815260200191505060405180910390f35b6102af610ece565b6040518080602001828103825283818151815260200191508051906020019060200280838360005b838110156102f25780820151818401526020810190506102d7565b505050509050019250505060405180910390f35b61033c6004803603604081101561031c57600080fd5b810190808035906020019092919080359060200190929190505050610f26565b6040518080602001828103825283818151815260200191508051906020019060200280838360005b8381101561037f578082015181840152602081019050610364565b505050509050019250505060405180910390f35b6103bf600480360360208110156103a957600080fd5b8101908080359060200190929190505050610fdc565b6040518082815260200191505060405180910390f35b610500600480360360808110156103eb57600080fd5b810190808035906020019064010000000081111561040857600080fd5b82018360208201111561041a57600080fd5b8035906020019184600183028401116401000000008311171561043c57600080fd5b90919293919293908035906020019064010000000081111561045d57600080fd5b82018360208201111561046f57600080fd5b8035906020019184600183028401116401000000008311171561049157600080fd5b9091929391929390803590602001906401000000008111156104b257600080fd5b8201836020820111156104c457600080fd5b803590602001918460208302840111640100000000831117156104e657600080fd5b909192939192939080359060200190929190505050611036565b604051808215151515815260200191505060405180910390f35b6105466004803603602081101561053057600080fd5b8101908080359060200190929190505050611461565b6040518080602001806020018873ffffffffffffffffffffffffffffffffffffffff1673ffffffffffffffffffffffffffffffffffffffff16815260200180602001806020018781526020018615151515815260200185810385528c818151815260200191508051906020019080838360005b838110156105d45780820151818401526020810190506105b9565b50505050905090810190601f1680156106015780820380516001836020036101000a031916815260200191505b5085810384528b818151815260200191508051906020019080838360005b8381101561063a57808201518184015260208101905061061f565b50505050905090810190601f1680156106675780820380516001836020036101000a031916815260200191505b50858103835289818151815260200191508051906020019060200280838360005b838110156106a3578082015181840152602081019050610688565b50505050905001858103825288818151815260200191508051906020019060200280838360005b838110156106e55780820151818401526020810190506106ca565b505050509050019b50505050505050505050505060405180910390f35b6107386004803603604081101561071857600080fd5b81019080803590602001909291908035906020019092919050505061175e565b604051808215151515815260200191505060405180910390f35b61079e6004803603604081101561076857600080fd5b81019080803573ffffffffffffffffffffffffffffffffffffffff1690602001909291908035906020019092919050505061179d565b6040518082815260200191505060405180910390f35b610800600480360360408110156107ca57600080fd5b81019080803573ffffffffffffffffffffffffffffffffffffffff169060200190929190803590602001909291905050506117cb565b6040518082815260200191505060405180910390f35b6060600360003373ffffffffffffffffffffffffffffffffffffffff1673ffffffffffffffffffffffffffffffffffffffff1681526020019081526020016000208054806020026020016040519081016040528092919081815260200182805480156108a157602002820191906000526020600020905b81548152602001906001019080831161088d575b5050505050905090565b6000600660003373ffffffffffffffffffffffffffffffffffffffff1673ffffffffffffffffffffffffffffffffffffffff168152602001908152602001600020600083815260200190815260200160002060009054906101000a900460ff169050919050565b6060600460003373ffffffffffffffffffffffffffffffffffffffff1673ffffffffffffffffffffffffffffffffffffffff16815260200190815260200160002080548060200260200160405190810160405280929190818152602001828054801561099d57602002820191906000526020600020905b815481526020019060010190808311610989575b5050505050905090565b60008073ffffffffffffffffffffffffffffffffffffffff1660008085815260200190815260200160002060010160009054906101000a900473ffffffffffffffffffffffffffffffffffffffff1673ffffffffffffffffffffffffffffffffffffffff161415610a80576040517f08c379a00000000000000000000000000000000000000000000000000000000081526004018080602001828103825260128152602001807f506f6c6c2069736e27742065786973746564000000000000000000000000000081525060200191505060405180910390fd5b60026000848152602001908152602001600020600083815260200190815260200160002060010160009054906101000a900460ff16610b27576040517f08c379a000000000000000000000000000000000000000000000000000000000815260040180806020018281038252601d8152602001807f506f6c6c20646f65736e277420686176652073756368206f7074696f6e00000081525060200191505060405180910390fd5b610b3083610ea6565b15610ba3576040517f08c379a000000000000000000000000000000000000000000000000000000000815260040180806020018281038252600f8152602001807f506f6c6c2069732065787069726564000000000000000000000000000000000081525060200191505060405180910390fd5b6000339050600660008273ffffffffffffffffffffffffffffffffffffffff1673ffffffffffffffffffffffffffffffffffffffff168152602001908152602001600020600085815260200190815260200160002060009054906101000a900460ff1615610c79576040517f08c379a00000000000000000000000000000000000000000000000000000000081526004018080602001828103825260168152602001807f596f7527766520706f6c6c656420666f7220746869730000000000000000000081525060200191505060405180910390fd5b600080858152602001908152602001600020600501819080600181540180825580915050600190039060005260206000200160009091909190916101000a81548173ffffffffffffffffffffffffffffffffffffffff021916908373ffffffffffffffffffffffffffffffffffffffff1602179055506001600660008373ffffffffffffffffffffffffffffffffffffffff1673ffffffffffffffffffffffffffffffffffffffff168152602001908152602001600020600086815260200190815260200160002060006101000a81548160ff021916908315150217905550600460008273ffffffffffffffffffffffffffffffffffffffff1673ffffffffffffffffffffffffffffffffffffffff16815260200190815260200160002084908060018154018082558091505060019003906000526020600020016000909190919091505582600560008373ffffffffffffffffffffffffffffffffffffffff1673ffffffffffffffffffffffffffffffffffffffff168152602001908152602001600020600086815260200190815260200160002081905550600260008581526020019081526020016000206000848152602001908152602001600020600001819080600181540180825580915050600190039060005260206000200160009091909190916101000a81548173ffffffffffffffffffffffffffffffffffffffff021916908373ffffffffffffffffffffffffffffffffffffffff160217905550600191505092915050565b6000806000838152602001908152602001600020600401544310159050919050565b60075481565b60606001805480602002602001604051908101604052809291908181526020018280548015610f1c57602002820191906000526020600020905b815481526020019060010190808311610f08575b5050505050905090565b6060600260008481526020019081526020016000206000838152602001908152602001600020600001805480602002602001604051908101604052809291908181526020018280548015610fcf57602002820191906000526020600020905b8160009054906101000a900473ffffffffffffffffffffffffffffffffffffffff1673ffffffffffffffffffffffffffffffffffffffff1681526020019060010190808311610f85575b5050505050905092915050565b6000600560003373ffffffffffffffffffffffffffffffffffffffff1673ffffffffffffffffffffffffffffffffffffffff1681526020019081526020016000206000838152602001908152602001600020549050919050565b60004382116110ad576040517f08c379a00000000000000000000000000000000000000000000000000000000081526004018080602001828103825260158152602001807f496e76616c6964206578706972656420626c6f636b000000000000000000000081525060200191505060405180910390fd5b6000339050600060075490506001600760008282540192505081905550600082828c8c88604051602001808673ffffffffffffffffffffffffffffffffffffffff1673ffffffffffffffffffffffffffffffffffffffff1660601b8152601401858152602001848480828437808301925050508281526020019550505050505060405160208183030381529060405280519060200120905061114d6117f9565b8b8b8080601f016020809104026020016040519081016040528093929190818152602001838380828437600081840152601f19601f82011690508083019250505050505050816000018190525083816020019073ffffffffffffffffffffffffffffffffffffffff16908173ffffffffffffffffffffffffffffffffffffffff168152505089898080601f016020809104026020016040519081016040528093929190818152602001838380828437600081840152601f19601f820116905080830192505050505050508160400181905250878780806020026020016040519081016040528093929190818152602001838360200280828437600081840152601f19601f820116905080830192505050505050508160600181905250858160800181815250508060008084815260200190815260200160002060008201518160000190805190602001906112a2929190611845565b5060208201518160010160006101000a81548173ffffffffffffffffffffffffffffffffffffffff021916908373ffffffffffffffffffffffffffffffffffffffff1602179055506040820151816002019080519060200190611306929190611845565b5060608201518160030190805190602001906113239291906118c5565b506080820151816004015560a082015181600501908051906020019061134a929190611912565b50905050600360008573ffffffffffffffffffffffffffffffffffffffff1673ffffffffffffffffffffffffffffffffffffffff16815260200190815260200160002082908060018154018082558091505060019003906000526020600020016000909190919091505560008090505b888890508110156114245760016002600085815260200190815260200160002060008b8b858181106113e857fe5b90506020020135815260200190815260200160002060010160006101000a81548160ff02191690831515021790555080806001019150506113ba565b5060018290806001815401808255809150506001900390600052602060002001600090919091909150556001945050505050979650505050505050565b60608060006060806000806114746117f9565b6000808a81526020019081526020016000206040518060c0016040529081600082018054600181600116156101000203166002900480601f01602080910402602001604051908101604052809291908181526020018280546001816001161561010002031660029004801561152a5780601f106114ff5761010080835404028352916020019161152a565b820191906000526020600020905b81548152906001019060200180831161150d57829003601f168201915b505050505081526020016001820160009054906101000a900473ffffffffffffffffffffffffffffffffffffffff1673ffffffffffffffffffffffffffffffffffffffff1673ffffffffffffffffffffffffffffffffffffffff168152602001600282018054600181600116156101000203166002900480601f0160208091040260200160405190810160405280929190818152602001828054600181600116156101000203166002900480156116225780601f106115f757610100808354040283529160200191611622565b820191906000526020600020905b81548152906001019060200180831161160557829003601f168201915b505050505081526020016003820180548060200260200160405190810160405280929190818152602001828054801561167a57602002820191906000526020600020905b815481526020019060010190808311611666575b50505050508152602001600482015481526020016005820180548060200260200160405190810160405280929190818152602001828054801561171257602002820191906000526020600020905b8160009054906101000a900473ffffffffffffffffffffffffffffffffffffffff1673ffffffffffffffffffffffffffffffffffffffff16815260200190600101908083116116c8575b5050505050815250509050806000015197508060400151965080602001519550806060015194508060a0015193508060800151925061175089610ea6565b915050919395979092949650565b600060026000848152602001908152602001600020600083815260200190815260200160002060010160009054906101000a900460ff16905092915050565b600460205281600052604060002081815481106117b657fe5b90600052602060002001600091509150505481565b600360205281600052604060002081815481106117e457fe5b90600052602060002001600091509150505481565b6040518060c0016040528060608152602001600073ffffffffffffffffffffffffffffffffffffffff168152602001606081526020016060815260200160008152602001606081525090565b828054600181600116156101000203166002900490600052602060002090601f016020900481019282601f1061188657805160ff19168380011785556118b4565b828001600101855582156118b4579182015b828111156118b3578251825591602001919060010190611898565b5b5090506118c1919061199c565b5090565b828054828255906000526020600020908101928215611901579160200282015b828111156119005782518255916020019190600101906118e5565b5b50905061190e91906119c1565b5090565b82805482825590600052602060002090810192821561198b579160200282015b8281111561198a5782518260006101000a81548173ffffffffffffffffffffffffffffffffffffffff021916908373ffffffffffffffffffffffffffffffffffffffff16021790555091602001919060010190611932565b5b50905061199891906119e6565b5090565b6119be91905b808211156119ba5760008160009055506001016119a2565b5090565b90565b6119e391905b808211156119df5760008160009055506001016119c7565b5090565b90565b611a2691905b80821115611a2257600081816101000a81549073ffffffffffffffffffffffffffffffffffffffff0219169055506001016119ec565b5090565b9056fea26469706673582212209d3a22257d99fb801fe1444b84bab7cdb97714f84c9996fff2e00eed0c6c214164736f6c634300060b0033",
  "immutableReferences": {},
  "source": "// SPDX-License-Identifier: MIT\npragma solidity >=0.4.22 <0.8.0;\n\ncontract Polling {\n    struct Poll {\n        string topic;\n        address sponsor;\n        string description;\n        bytes32[] options;\n        uint256 expiredBlock;\n        address[] voters;\n    }\n\n    struct OptionResult {\n        address[] voters;\n        bool registered;\n    }\n\n    // track poll by poll id\n    mapping(bytes32 => Poll) private polls;\n    bytes32[] private pollList;\n    mapping(bytes32 => mapping(bytes32 => OptionResult)) private optionResults;\n    // track poll id for sponsors and voters\n    mapping(address => bytes32[]) public pollIdOfSponsor;\n    mapping(address => bytes32[]) public pollIdOfVoter;\n    // track poll status and option of voters\n    mapping(address => mapping(bytes32 => bytes32)) private optionOfVoter;\n    mapping(address => mapping(bytes32 => bool)) private voterPolled;\n    \n    uint256 public totalPollsCount;\n\n    constructor() public {\n        totalPollsCount = 0;\n    }\n\n    function sponsorRaisesAPoll(\n        string calldata _topic,\n        string calldata _description,\n        bytes32[] calldata _options,\n        uint256 _expiredBlock\n    ) external returns (bool) {\n        require(_expiredBlock > block.number, \"Invalid expired block\");\n\n        address _sponsor = msg.sender;\n\n        uint256 _totalPollsCount = totalPollsCount;\n        totalPollsCount += 1;\n\n        bytes32 _pollId = keccak256(\n            abi.encodePacked(_sponsor, _totalPollsCount, _topic, _expiredBlock)\n        );\n\n        Poll memory _poll;\n        _poll.topic = _topic;\n        _poll.sponsor = _sponsor;\n        _poll.description = _description;\n        _poll.options = _options;\n        _poll.expiredBlock = _expiredBlock;\n\n        polls[_pollId] = _poll;\n        pollIdOfSponsor[_sponsor].push(_pollId);\n\n        for (uint i=0; i<_options.length; i++) {\n            optionResults[_pollId][_options[i]].registered = true;\n        }\n\n        pollList.push(_pollId);\n\n        return true;\n    }\n\n    function voterVotesAPoll(bytes32 _pollId, bytes32 _option) external returns (bool) {\n        require(polls[_pollId].sponsor != address(0), \"Poll isn't existed\");\n        require(optionResults[_pollId][_option].registered, \"Poll doesn't have such option\");\n        require(!isPollExpired(_pollId), \"Poll is expired\");\n\n        address _voter = msg.sender;\n        require(!voterPolled[_voter][_pollId], \"You've polled for this\");\n\n        polls[_pollId].voters.push(_voter);\n        // pollIdOfVoter[_voter].push(_pollId);\n        voterPolled[_voter][_pollId] = true;\n\n        \n        pollIdOfVoter[_voter].push(_pollId);\n        optionOfVoter[_voter][_pollId] =_option;\n\n        optionResults[_pollId][_option].voters.push(_voter);\n        return true;\n    }\n\n    function getPollInformation(bytes32 _pollId)\n        public\n        view\n        returns (\n            string memory _topic,\n            string memory _description,\n            address _sponsor,\n            bytes32[] memory _options,\n            address[] memory _voters,\n            uint256 _expiredBlock,\n            bool _expired\n        )\n    {\n        Poll memory poll = polls[_pollId];\n\n        _topic = poll.topic;\n        _description = poll.description;\n        _sponsor = poll.sponsor;\n        _options = poll.options;\n        _voters = poll.voters;\n        _expiredBlock = poll.expiredBlock;\n        _expired = isPollExpired(_pollId);\n    }\n\n    function getPollList() public view returns (bytes32[] memory) {\n        return pollList;\n    }\n\n    function getPollVoters(bytes32 _pollId, bytes32 _option) public view returns (address[] memory) {\n        return optionResults[_pollId][_option].voters;\n    }\n\n    function getSponsorsPollList() public view returns (bytes32[] memory) {\n        return pollIdOfSponsor[msg.sender];\n    }\n\n    function getVotersPollList() public view returns (bytes32[] memory) {\n        return pollIdOfVoter[msg.sender];\n    }\n\n    function getVotersOption(bytes32 _pollId) public view returns (bytes32) {\n        return optionOfVoter[msg.sender][_pollId];\n    }\n\n    function isPollExpired(bytes32 _pollId) public view returns (bool) {\n        return (block.number >= polls[_pollId].expiredBlock);\n    }\n\n    function isVoted(bytes32 _pollId) public view returns (bool) {\n        return voterPolled[msg.sender][_pollId];\n    }\n\n    function isOptionBelongToPoll(bytes32 _pollId, bytes32 _option) public view returns (bool) {\n        return optionResults[_pollId][_option].registered;\n    }\n}\n",
  "sourcePath": "/Users/kobechao/projects/Polling/contracts/Polling.sol",
  "compiler": {
    "name": "solc",
    "version": "0.6.11+commit.5ef660b1.Emscripten.clang"
  },
  "schemaVersion": "3.3.3",
  "updatedAt": "2020-12-22T10:03:50.385Z",
  "networkType": "ethereum",
  "devdoc": {
    "kind": "dev",
    "methods": {},
    "version": 1
  },
  "userdoc": {
    "kind": "user",
    "methods": {},
    "version": 1
  }
}