{
  "contractName": "Polling",
  "abi": [
    {
      "inputs": [],
      "stateMutability": "nonpayable",
      "type": "constructor"
    },
    {
      "inputs": [
        {
          "internalType": "address",
          "name": "",
          "type": "address"
        },
        {
          "internalType": "uint256",
          "name": "",
          "type": "uint256"
        }
      ],
      "name": "pollIdOfSponsor",
      "outputs": [
        {
          "internalType": "bytes32",
          "name": "",
          "type": "bytes32"
        }
      ],
      "stateMutability": "view",
      "type": "function",
      "constant": true
    },
    {
      "inputs": [
        {
          "internalType": "address",
          "name": "",
          "type": "address"
        },
        {
          "internalType": "uint256",
          "name": "",
          "type": "uint256"
        }
      ],
      "name": "pollIdOfVoter",
      "outputs": [
        {
          "internalType": "bytes32",
          "name": "",
          "type": "bytes32"
        }
      ],
      "stateMutability": "view",
      "type": "function",
      "constant": true
    },
    {
      "inputs": [
        {
          "internalType": "uint256",
          "name": "",
          "type": "uint256"
        }
      ],
      "name": "pollList",
      "outputs": [
        {
          "internalType": "bytes32",
          "name": "",
          "type": "bytes32"
        }
      ],
      "stateMutability": "view",
      "type": "function",
      "constant": true
    },
    {
      "inputs": [
        {
          "internalType": "bytes32",
          "name": "",
          "type": "bytes32"
        }
      ],
      "name": "polls",
      "outputs": [
        {
          "internalType": "string",
          "name": "topic",
          "type": "string"
        },
        {
          "internalType": "string",
          "name": "description",
          "type": "string"
        },
        {
          "internalType": "uint256",
          "name": "expiredBlock",
          "type": "uint256"
        },
        {
          "internalType": "address",
          "name": "sponsor",
          "type": "address"
        }
      ],
      "stateMutability": "view",
      "type": "function",
      "constant": true
    },
    {
      "inputs": [],
      "name": "totalPollsCount",
      "outputs": [
        {
          "internalType": "uint256",
          "name": "",
          "type": "uint256"
        }
      ],
      "stateMutability": "view",
      "type": "function",
      "constant": true
    },
    {
      "inputs": [
        {
          "internalType": "string",
          "name": "_topic",
          "type": "string"
        },
        {
          "internalType": "string",
          "name": "_description",
          "type": "string"
        },
        {
          "internalType": "uint256",
          "name": "_expiredBlock",
          "type": "uint256"
        }
      ],
      "name": "sponsorCreatePoll",
      "outputs": [
        {
          "internalType": "bool",
          "name": "",
          "type": "bool"
        }
      ],
      "stateMutability": "nonpayable",
      "type": "function"
    },
    {
      "inputs": [
        {
          "internalType": "bytes32",
          "name": "_pollId",
          "type": "bytes32"
        }
      ],
      "name": "voterPolls",
      "outputs": [
        {
          "internalType": "bool",
          "name": "",
          "type": "bool"
        }
      ],
      "stateMutability": "nonpayable",
      "type": "function"
    },
    {
      "inputs": [
        {
          "internalType": "bytes32",
          "name": "_pollId",
          "type": "bytes32"
        }
      ],
      "name": "getPollInformation",
      "outputs": [
        {
          "internalType": "string",
          "name": "_topic",
          "type": "string"
        },
        {
          "internalType": "string",
          "name": "_description",
          "type": "string"
        },
        {
          "internalType": "address",
          "name": "_sponsor",
          "type": "address"
        },
        {
          "internalType": "address[]",
          "name": "_voters",
          "type": "address[]"
        },
        {
          "internalType": "uint256",
          "name": "_blockLeft",
          "type": "uint256"
        },
        {
          "internalType": "bool",
          "name": "_expired",
          "type": "bool"
        }
      ],
      "stateMutability": "view",
      "type": "function",
      "constant": true
    },
    {
      "inputs": [],
      "name": "getPollList",
      "outputs": [
        {
          "internalType": "bytes32[]",
          "name": "",
          "type": "bytes32[]"
        }
      ],
      "stateMutability": "view",
      "type": "function",
      "constant": true
    },
    {
      "inputs": [],
      "name": "getSponsorsPollList",
      "outputs": [
        {
          "internalType": "bytes32[]",
          "name": "",
          "type": "bytes32[]"
        }
      ],
      "stateMutability": "view",
      "type": "function",
      "constant": true
    },
    {
      "inputs": [],
      "name": "getVotersPollList",
      "outputs": [
        {
          "internalType": "bytes32[]",
          "name": "",
          "type": "bytes32[]"
        }
      ],
      "stateMutability": "view",
      "type": "function",
      "constant": true
    }
  ],
  "bytecode": "0x608060405234801561001057600080fd5b506000600581905550611784806100286000396000f3fe608060405234801561001057600080fd5b50600436106100a95760003560e01c806374b2efe11161007157806374b2efe1146103365780638f6e4ed01461037c57806397a69e121461046c578063e7e3922e1461060c578063f5355d8b1461064e578063fbe2a8b1146106b0576100a9565b80630179ae0f146100ae5780631776494e1461010d5780634963a0921461016c57806355458f4a1461018a5780636a506c22146102d7575b600080fd5b6100b6610712565b6040518080602001828103825283818151815260200191508051906020019060200280838360005b838110156100f95780820151818401526020810190506100de565b505050509050019250505060405180910390f35b6101156107a7565b6040518080602001828103825283818151815260200191508051906020019060200280838360005b8381101561015857808201518184015260208101905061013d565b505050509050019250505060405180910390f35b61017461083c565b6040518082815260200191505060405180910390f35b6101b6600480360360208110156101a057600080fd5b8101908080359060200190929190505050610842565b6040518080602001806020018581526020018473ffffffffffffffffffffffffffffffffffffffff1673ffffffffffffffffffffffffffffffffffffffff168152602001838103835287818151815260200191508051906020019080838360005b83811015610232578082015181840152602081019050610217565b50505050905090810190601f16801561025f5780820380516001836020036101000a031916815260200191505b50838103825286818151815260200191508051906020019080838360005b8381101561029857808201518184015260208101905061027d565b50505050905090810190601f1680156102c55780820380516001836020036101000a031916815260200191505b50965050505050505060405180910390f35b6102df6109c2565b6040518080602001828103825283818151815260200191508051906020019060200280838360005b83811015610322578082015181840152602081019050610307565b505050509050019250505060405180910390f35b6103626004803603602081101561034c57600080fd5b8101908080359060200190929190505050610a1a565b604051808215151515815260200191505060405180910390f35b6104526004803603606081101561039257600080fd5b81019080803590602001906401000000008111156103af57600080fd5b8201836020820111156103c157600080fd5b803590602001918460018302840111640100000000831117156103e357600080fd5b90919293919293908035906020019064010000000081111561040457600080fd5b82018360208201111561041657600080fd5b8035906020019184600183028401116401000000008311171561043857600080fd5b909192939192939080359060200190929190505050610da1565b604051808215151515815260200191505060405180910390f35b6104986004803603602081101561048257600080fd5b810190808035906020019092919050505061122c565b6040518080602001806020018773ffffffffffffffffffffffffffffffffffffffff1673ffffffffffffffffffffffffffffffffffffffff168152602001806020018681526020018515151515815260200184810384528a818151815260200191508051906020019080838360005b83811015610522578082015181840152602081019050610507565b50505050905090810190601f16801561054f5780820380516001836020036101000a031916815260200191505b50848103835289818151815260200191508051906020019080838360005b8381101561058857808201518184015260208101905061056d565b50505050905090810190601f1680156105b55780820380516001836020036101000a031916815260200191505b50848103825287818151815260200191508051906020019060200280838360005b838110156105f15780820151818401526020810190506105d6565b50505050905001995050505050505050505060405180910390f35b6106386004803603602081101561062257600080fd5b81019080803590602001909291905050506114c6565b6040518082815260200191505060405180910390f35b61069a6004803603604081101561066457600080fd5b81019080803573ffffffffffffffffffffffffffffffffffffffff169060200190929190803590602001909291905050506114e7565b6040518082815260200191505060405180910390f35b6106fc600480360360408110156106c657600080fd5b81019080803573ffffffffffffffffffffffffffffffffffffffff16906020019092919080359060200190929190505050611515565b6040518082815260200191505060405180910390f35b6060600160003373ffffffffffffffffffffffffffffffffffffffff1673ffffffffffffffffffffffffffffffffffffffff16815260200190815260200160002080548060200260200160405190810160405280929190818152602001828054801561079d57602002820191906000526020600020905b815481526020019060010190808311610789575b5050505050905090565b6060600360003373ffffffffffffffffffffffffffffffffffffffff1673ffffffffffffffffffffffffffffffffffffffff16815260200190815260200160002080548060200260200160405190810160405280929190818152602001828054801561083257602002820191906000526020600020905b81548152602001906001019080831161081e575b5050505050905090565b60055481565b6000602052806000526040600020600091509050806000018054600181600116156101000203166002900480601f0160208091040260200160405190810160405280929190818152602001828054600181600116156101000203166002900480156108ee5780601f106108c3576101008083540402835291602001916108ee565b820191906000526020600020905b8154815290600101906020018083116108d157829003601f168201915b505050505090806001018054600181600116156101000203166002900480601f01602080910402602001604051908101604052809291908181526020018280546001816001161561010002031660029004801561098c5780601f106109615761010080835404028352916020019161098c565b820191906000526020600020905b81548152906001019060200180831161096f57829003601f168201915b5050505050908060020154908060030160009054906101000a900473ffffffffffffffffffffffffffffffffffffffff16905084565b60606006805480602002602001604051908101604052809291908181526020018280548015610a1057602002820191906000526020600020905b8154815260200190600101908083116109fc575b5050505050905090565b60008073ffffffffffffffffffffffffffffffffffffffff1660008084815260200190815260200160002060030160009054906101000a900473ffffffffffffffffffffffffffffffffffffffff1673ffffffffffffffffffffffffffffffffffffffff161415610af3576040517f08c379a00000000000000000000000000000000000000000000000000000000081526004018080602001828103825260128152602001807f506f6c6c2069736e27742065786973746564000000000000000000000000000081525060200191505060405180910390fd5b6000610afe83611543565b9150508015610b75576040517f08c379a000000000000000000000000000000000000000000000000000000000815260040180806020018281038252600f8152602001807f506f6c6c2069732065787069726564000000000000000000000000000000000081525060200191505060405180910390fd5b6000339050600460008273ffffffffffffffffffffffffffffffffffffffff1673ffffffffffffffffffffffffffffffffffffffff168152602001908152602001600020600085815260200190815260200160002060009054906101000a900460ff1615610c4b576040517f08c379a00000000000000000000000000000000000000000000000000000000081526004018080602001828103825260168152602001807f596f7527766520706f6c6c656420666f7220746869730000000000000000000081525060200191505060405180910390fd5b6000806000868152602001908152602001600020905080600401829080600181540180825580915050600190039060005260206000200160009091909190916101000a81548173ffffffffffffffffffffffffffffffffffffffff021916908373ffffffffffffffffffffffffffffffffffffffff160217905550600360008373ffffffffffffffffffffffffffffffffffffffff1673ffffffffffffffffffffffffffffffffffffffff1681526020019081526020016000208590806001815401808255809150506001900390600052602060002001600090919091909150556001600460008473ffffffffffffffffffffffffffffffffffffffff1673ffffffffffffffffffffffffffffffffffffffff168152602001908152602001600020600087815260200190815260200160002060006101000a81548160ff02191690831515021790555060019350505050919050565b6000438211610e18576040517f08c379a00000000000000000000000000000000000000000000000000000000081526004018080602001828103825260158152602001807f496e76616c6964206578706972656420626c6f636b000000000000000000000081525060200191505060405180910390fd5b6000339050600060055490506001600560008282540192505081905550600082828a8a88604051602001808673ffffffffffffffffffffffffffffffffffffffff1673ffffffffffffffffffffffffffffffffffffffff1660601b81526014018581526020018484808284378083019250505082815260200195505050505050604051602081830303815290604052805190602001209050600260008473ffffffffffffffffffffffffffffffffffffffff1673ffffffffffffffffffffffffffffffffffffffff168152602001908152602001600020600082815260200190815260200160002060009054906101000a900460ff1615610f81576040517f08c379a000000000000000000000000000000000000000000000000000000000815260040180806020018281038252600f8152602001807f506f6c6c2069732065786973746564000000000000000000000000000000000081525060200191505060405180910390fd5b610f89611597565b89898080601f016020809104026020016040519081016040528093929190818152602001838380828437600081840152601f19601f82011690508083019250505050505050816000018190525087878080601f016020809104026020016040519081016040528093929190818152602001838380828437600081840152601f19601f8201169050808301925050505050505081602001819052508581604001818152505083816060019073ffffffffffffffffffffffffffffffffffffffff16908173ffffffffffffffffffffffffffffffffffffffff16815250508060008084815260200190815260200160002060008201518160000190805190602001906110949291906115dc565b5060208201518160010190805190602001906110b19291906115dc565b506040820151816002015560608201518160030160006101000a81548173ffffffffffffffffffffffffffffffffffffffff021916908373ffffffffffffffffffffffffffffffffffffffff160217905550608082015181600401908051906020019061111f92919061165c565b50905050600160008573ffffffffffffffffffffffffffffffffffffffff1673ffffffffffffffffffffffffffffffffffffffff1681526020019081526020016000208290806001815401808255809150506001900390600052602060002001600090919091909150556001600260008673ffffffffffffffffffffffffffffffffffffffff1673ffffffffffffffffffffffffffffffffffffffff168152602001908152602001600020600084815260200190815260200160002060006101000a81548160ff0219169083151502179055506006829080600181540180825580915050600190039060005260206000200160009091909190915055600194505050505095945050505050565b6060806000606060008061123e611597565b6000808981526020019081526020016000206040518060a0016040529081600082018054600181600116156101000203166002900480601f0160208091040260200160405190810160405280929190818152602001828054600181600116156101000203166002900480156112f45780601f106112c9576101008083540402835291602001916112f4565b820191906000526020600020905b8154815290600101906020018083116112d757829003601f168201915b50505050508152602001600182018054600181600116156101000203166002900480601f0160208091040260200160405190810160405280929190818152602001828054600181600116156101000203166002900480156113965780601f1061136b57610100808354040283529160200191611396565b820191906000526020600020905b81548152906001019060200180831161137957829003601f168201915b50505050508152602001600282015481526020016003820160009054906101000a900473ffffffffffffffffffffffffffffffffffffffff1673ffffffffffffffffffffffffffffffffffffffff1673ffffffffffffffffffffffffffffffffffffffff1681526020016004820180548060200260200160405190810160405280929190818152602001828054801561148457602002820191906000526020600020905b8160009054906101000a900473ffffffffffffffffffffffffffffffffffffffff1673ffffffffffffffffffffffffffffffffffffffff168152602001906001019080831161143a575b5050505050815250509050806000015196508060200151955080606001519450806080015193506114b488611543565b80935081945050505091939550919395565b600681815481106114d357fe5b906000526020600020016000915090505481565b6003602052816000526040600020818154811061150057fe5b90600052602060002001600091509150505481565b6001602052816000526040600020818154811061152e57fe5b90600052602060002001600091509150505481565b6000806000806000858152602001908152602001600020600201544303905060008113156115715780611574565b60005b925060008085815260200190815260200160002060020154431015915050915091565b6040518060a00160405280606081526020016060815260200160008152602001600073ffffffffffffffffffffffffffffffffffffffff168152602001606081525090565b828054600181600116156101000203166002900490600052602060002090601f016020900481019282601f1061161d57805160ff191683800117855561164b565b8280016001018555821561164b579182015b8281111561164a57825182559160200191906001019061162f565b5b50905061165891906116e6565b5090565b8280548282559060005260206000209081019282156116d5579160200282015b828111156116d45782518260006101000a81548173ffffffffffffffffffffffffffffffffffffffff021916908373ffffffffffffffffffffffffffffffffffffffff1602179055509160200191906001019061167c565b5b5090506116e2919061170b565b5090565b61170891905b808211156117045760008160009055506001016116ec565b5090565b90565b61174b91905b8082111561174757600081816101000a81549073ffffffffffffffffffffffffffffffffffffffff021916905550600101611711565b5090565b9056fea2646970667358221220c7417fa5ec2377d06881e4140249d90c23b36d27961b5863091a497388e9942c64736f6c634300060b0033",
  "immutableReferences": {},
  "source": "// SPDX-License-Identifier: MIT\npragma solidity >=0.4.22 <0.8.0;\n\ncontract Polling {\n    struct Poll {\n        string topic;\n        string description;\n        uint256 expiredBlock;\n        address sponsor;\n        address[] voters;\n    }\n    // track poll by poll id\n    mapping(bytes32 => Poll) public polls;\n    // track poll id for sponsors\n    mapping(address => bytes32[]) public pollIdOfSponsor;\n    mapping(address => mapping(bytes32 => bool)) private sponsorRaised;\n    // track poll id being polled by voter\n    mapping(address => bytes32[]) public pollIdOfVoter;\n    mapping(address => mapping(bytes32 => bool)) private voterPolled;\n\n    uint256 public totalPollsCount;\n    bytes32[] public pollList;\n\n    constructor() public {\n        totalPollsCount = 0;\n    }\n\n    function sponsorCreatePoll(\n        string calldata _topic,\n        string calldata _description,\n        uint256 _expiredBlock\n    ) external returns (bool) {\n        require(_expiredBlock > block.number, \"Invalid expired block\");\n\n        address _sponsor = msg.sender;\n\n        uint256 _totalPollsCount = totalPollsCount;\n        totalPollsCount += 1;\n\n        bytes32 _pollId = keccak256(\n            abi.encodePacked(_sponsor, _totalPollsCount, _topic, _expiredBlock)\n        );\n\n        require(!sponsorRaised[_sponsor][_pollId], \"Poll is existed\");\n\n        Poll memory _poll;\n        _poll.topic = _topic;\n        _poll.description = _description;\n        _poll.expiredBlock = _expiredBlock;\n        _poll.sponsor = _sponsor;\n\n        polls[_pollId] = _poll;\n        pollIdOfSponsor[_sponsor].push(_pollId);\n        sponsorRaised[_sponsor][_pollId] = true;\n\n        pollList.push(_pollId);\n\n        return true;\n    }\n\n    function voterPolls(bytes32 _pollId) external returns (bool) {\n        require(polls[_pollId].sponsor != address(0), \"Poll isn't existed\");\n\n        (, bool _expired) = getPollStatus(_pollId);\n        require(!_expired, \"Poll is expired\");\n\n        address _voter = msg.sender;\n        require(!voterPolled[_voter][_pollId], \"You've polled for this\");\n\n        Poll storage _poll = polls[_pollId];\n\n        _poll.voters.push(_voter);\n        pollIdOfVoter[_voter].push(_pollId);\n        voterPolled[_voter][_pollId] = true;\n        return true;\n    }\n\n    function getPollInformation(bytes32 _pollId)\n        public\n        view\n        returns (\n            string memory _topic,\n            string memory _description,\n            address _sponsor,\n            address[] memory _voters,\n            uint256 _blockLeft,\n            bool _expired\n        )\n    {\n        Poll memory poll = polls[_pollId];\n\n        _topic = poll.topic;\n        _description = poll.description;\n        _sponsor = poll.sponsor;\n        _voters = poll.voters;\n        (_blockLeft, _expired) = getPollStatus(_pollId);\n    }\n\n    function getPollStatus(bytes32 _pollId)\n        internal\n        view\n        returns (uint256 _blockLeft, bool _expired)\n    {\n        int256 blockLeft = int256(block.number - polls[_pollId].expiredBlock);\n        _blockLeft = blockLeft <= 0 ? 0 : uint256(blockLeft);\n        _expired = block.number >= polls[_pollId].expiredBlock;\n    }\n\n    function getPollList() public view returns (bytes32[] memory) {\n        return pollList;\n    }\n\n    function getSponsorsPollList() public view returns (bytes32[] memory) {\n        return pollIdOfSponsor[msg.sender];\n    }\n\n    function getVotersPollList() public view returns (bytes32[] memory) {\n        return pollIdOfVoter[msg.sender];\n    }\n}\n",
  "sourcePath": "/home/kobechao/projects/polling/contracts/Polling.sol",
  "compiler": {
    "name": "solc",
    "version": "0.6.11+commit.5ef660b1.Emscripten.clang"
  },
  "schemaVersion": "3.2.5",
  "updatedAt": "2020-12-18T07:27:56.649Z",
  "networkType": "ethereum",
  "devdoc": {
    "kind": "dev",
    "methods": {},
    "version": 1
  },
  "userdoc": {
    "kind": "user",
    "methods": {},
    "version": 1
  }
}