{
  "contractName": "Polling",
  "abi": [
    {
      "inputs": [],
      "stateMutability": "nonpayable",
      "type": "constructor"
    },
    {
      "inputs": [
        {
          "internalType": "address",
          "name": "",
          "type": "address"
        },
        {
          "internalType": "uint256",
          "name": "",
          "type": "uint256"
        }
      ],
      "name": "pollIdOfSponsor",
      "outputs": [
        {
          "internalType": "bytes32",
          "name": "",
          "type": "bytes32"
        }
      ],
      "stateMutability": "view",
      "type": "function",
      "constant": true
    },
    {
      "inputs": [
        {
          "internalType": "address",
          "name": "",
          "type": "address"
        },
        {
          "internalType": "uint256",
          "name": "",
          "type": "uint256"
        }
      ],
      "name": "pollIdOfVoter",
      "outputs": [
        {
          "internalType": "bytes32",
          "name": "",
          "type": "bytes32"
        }
      ],
      "stateMutability": "view",
      "type": "function",
      "constant": true
    },
    {
      "inputs": [
        {
          "internalType": "uint256",
          "name": "",
          "type": "uint256"
        }
      ],
      "name": "pollList",
      "outputs": [
        {
          "internalType": "bytes32",
          "name": "",
          "type": "bytes32"
        }
      ],
      "stateMutability": "view",
      "type": "function",
      "constant": true
    },
    {
      "inputs": [
        {
          "internalType": "bytes32",
          "name": "",
          "type": "bytes32"
        }
      ],
      "name": "polls",
      "outputs": [
        {
          "internalType": "string",
          "name": "topic",
          "type": "string"
        },
        {
          "internalType": "string",
          "name": "description",
          "type": "string"
        },
        {
          "internalType": "uint256",
          "name": "expiredBlock",
          "type": "uint256"
        },
        {
          "internalType": "address",
          "name": "sponsor",
          "type": "address"
        }
      ],
      "stateMutability": "view",
      "type": "function",
      "constant": true
    },
    {
      "inputs": [],
      "name": "totalPollsCount",
      "outputs": [
        {
          "internalType": "uint256",
          "name": "",
          "type": "uint256"
        }
      ],
      "stateMutability": "view",
      "type": "function",
      "constant": true
    },
    {
      "inputs": [
        {
          "internalType": "string",
          "name": "_topic",
          "type": "string"
        },
        {
          "internalType": "string",
          "name": "_description",
          "type": "string"
        },
        {
          "internalType": "uint256",
          "name": "_expiredBlock",
          "type": "uint256"
        }
      ],
      "name": "sponsorCreatePoll",
      "outputs": [
        {
          "internalType": "bool",
          "name": "",
          "type": "bool"
        }
      ],
      "stateMutability": "nonpayable",
      "type": "function"
    },
    {
      "inputs": [
        {
          "internalType": "bytes32",
          "name": "_pollId",
          "type": "bytes32"
        }
      ],
      "name": "voterPolls",
      "outputs": [
        {
          "internalType": "bool",
          "name": "",
          "type": "bool"
        }
      ],
      "stateMutability": "nonpayable",
      "type": "function"
    },
    {
      "inputs": [
        {
          "internalType": "bytes32",
          "name": "_pollId",
          "type": "bytes32"
        }
      ],
      "name": "getPollInformation",
      "outputs": [
        {
          "internalType": "string",
          "name": "_topic",
          "type": "string"
        },
        {
          "internalType": "string",
          "name": "_description",
          "type": "string"
        },
        {
          "internalType": "address",
          "name": "_sponsor",
          "type": "address"
        },
        {
          "internalType": "address[]",
          "name": "_voters",
          "type": "address[]"
        },
        {
          "internalType": "uint256",
          "name": "_blockLeft",
          "type": "uint256"
        },
        {
          "internalType": "bool",
          "name": "_expired",
          "type": "bool"
        }
      ],
      "stateMutability": "view",
      "type": "function",
      "constant": true
    },
    {
      "inputs": [],
      "name": "getPollList",
      "outputs": [
        {
          "internalType": "bytes32[]",
          "name": "",
          "type": "bytes32[]"
        }
      ],
      "stateMutability": "view",
      "type": "function",
      "constant": true
    },
    {
      "inputs": [],
      "name": "getSponsorsPollList",
      "outputs": [
        {
          "internalType": "bytes32[]",
          "name": "",
          "type": "bytes32[]"
        }
      ],
      "stateMutability": "view",
      "type": "function",
      "constant": true
    },
    {
      "inputs": [],
      "name": "getVotersPollList",
      "outputs": [
        {
          "internalType": "bytes32[]",
          "name": "",
          "type": "bytes32[]"
        }
      ],
      "stateMutability": "view",
      "type": "function",
      "constant": true
    },
    {
      "inputs": [
        {
          "internalType": "bytes32",
          "name": "_pollId",
          "type": "bytes32"
        }
      ],
      "name": "isVoted",
      "outputs": [
        {
          "internalType": "bool",
          "name": "",
          "type": "bool"
        }
      ],
      "stateMutability": "view",
      "type": "function",
      "constant": true
    }
  ],
  "bytecode": "0x608060405234801561001057600080fd5b50600060058190555061183c806100286000396000f3fe608060405234801561001057600080fd5b50600436106100b45760003560e01c806374b2efe11161007157806374b2efe1146103875780638f6e4ed0146103cd57806397a69e12146104bd578063e7e3922e1461065d578063f5355d8b1461069f578063fbe2a8b114610701576100b4565b80630179ae0f146100b95780631163fd2d146101185780631776494e1461015e5780634963a092146101bd57806355458f4a146101db5780636a506c2214610328575b600080fd5b6100c1610763565b6040518080602001828103825283818151815260200191508051906020019060200280838360005b838110156101045780820151818401526020810190506100e9565b505050509050019250505060405180910390f35b6101446004803603602081101561012e57600080fd5b81019080803590602001909291905050506107f8565b604051808215151515815260200191505060405180910390f35b61016661085f565b6040518080602001828103825283818151815260200191508051906020019060200280838360005b838110156101a957808201518184015260208101905061018e565b505050509050019250505060405180910390f35b6101c56108f4565b6040518082815260200191505060405180910390f35b610207600480360360208110156101f157600080fd5b81019080803590602001909291905050506108fa565b6040518080602001806020018581526020018473ffffffffffffffffffffffffffffffffffffffff1673ffffffffffffffffffffffffffffffffffffffff168152602001838103835287818151815260200191508051906020019080838360005b83811015610283578082015181840152602081019050610268565b50505050905090810190601f1680156102b05780820380516001836020036101000a031916815260200191505b50838103825286818151815260200191508051906020019080838360005b838110156102e95780820151818401526020810190506102ce565b50505050905090810190601f1680156103165780820380516001836020036101000a031916815260200191505b50965050505050505060405180910390f35b610330610a7a565b6040518080602001828103825283818151815260200191508051906020019060200280838360005b83811015610373578082015181840152602081019050610358565b505050509050019250505060405180910390f35b6103b36004803603602081101561039d57600080fd5b8101908080359060200190929190505050610ad2565b604051808215151515815260200191505060405180910390f35b6104a3600480360360608110156103e357600080fd5b810190808035906020019064010000000081111561040057600080fd5b82018360208201111561041257600080fd5b8035906020019184600183028401116401000000008311171561043457600080fd5b90919293919293908035906020019064010000000081111561045557600080fd5b82018360208201111561046757600080fd5b8035906020019184600183028401116401000000008311171561048957600080fd5b909192939192939080359060200190929190505050610e59565b604051808215151515815260200191505060405180910390f35b6104e9600480360360208110156104d357600080fd5b81019080803590602001909291905050506112e4565b6040518080602001806020018773ffffffffffffffffffffffffffffffffffffffff1673ffffffffffffffffffffffffffffffffffffffff168152602001806020018681526020018515151515815260200184810384528a818151815260200191508051906020019080838360005b83811015610573578082015181840152602081019050610558565b50505050905090810190601f1680156105a05780820380516001836020036101000a031916815260200191505b50848103835289818151815260200191508051906020019080838360005b838110156105d95780820151818401526020810190506105be565b50505050905090810190601f1680156106065780820380516001836020036101000a031916815260200191505b50848103825287818151815260200191508051906020019060200280838360005b83811015610642578082015181840152602081019050610627565b50505050905001995050505050505050505060405180910390f35b6106896004803603602081101561067357600080fd5b810190808035906020019092919050505061157e565b6040518082815260200191505060405180910390f35b6106eb600480360360408110156106b557600080fd5b81019080803573ffffffffffffffffffffffffffffffffffffffff1690602001909291908035906020019092919050505061159f565b6040518082815260200191505060405180910390f35b61074d6004803603604081101561071757600080fd5b81019080803573ffffffffffffffffffffffffffffffffffffffff169060200190929190803590602001909291905050506115cd565b6040518082815260200191505060405180910390f35b6060600160003373ffffffffffffffffffffffffffffffffffffffff1673ffffffffffffffffffffffffffffffffffffffff1681526020019081526020016000208054806020026020016040519081016040528092919081815260200182805480156107ee57602002820191906000526020600020905b8154815260200190600101908083116107da575b5050505050905090565b6000600460003373ffffffffffffffffffffffffffffffffffffffff1673ffffffffffffffffffffffffffffffffffffffff168152602001908152602001600020600083815260200190815260200160002060009054906101000a900460ff169050919050565b6060600360003373ffffffffffffffffffffffffffffffffffffffff1673ffffffffffffffffffffffffffffffffffffffff1681526020019081526020016000208054806020026020016040519081016040528092919081815260200182805480156108ea57602002820191906000526020600020905b8154815260200190600101908083116108d6575b5050505050905090565b60055481565b6000602052806000526040600020600091509050806000018054600181600116156101000203166002900480601f0160208091040260200160405190810160405280929190818152602001828054600181600116156101000203166002900480156109a65780601f1061097b576101008083540402835291602001916109a6565b820191906000526020600020905b81548152906001019060200180831161098957829003601f168201915b505050505090806001018054600181600116156101000203166002900480601f016020809104026020016040519081016040528092919081815260200182805460018160011615610100020316600290048015610a445780601f10610a1957610100808354040283529160200191610a44565b820191906000526020600020905b815481529060010190602001808311610a2757829003601f168201915b5050505050908060020154908060030160009054906101000a900473ffffffffffffffffffffffffffffffffffffffff16905084565b60606006805480602002602001604051908101604052809291908181526020018280548015610ac857602002820191906000526020600020905b815481526020019060010190808311610ab4575b5050505050905090565b60008073ffffffffffffffffffffffffffffffffffffffff1660008084815260200190815260200160002060030160009054906101000a900473ffffffffffffffffffffffffffffffffffffffff1673ffffffffffffffffffffffffffffffffffffffff161415610bab576040517f08c379a00000000000000000000000000000000000000000000000000000000081526004018080602001828103825260128152602001807f506f6c6c2069736e27742065786973746564000000000000000000000000000081525060200191505060405180910390fd5b6000610bb6836115fb565b9150508015610c2d576040517f08c379a000000000000000000000000000000000000000000000000000000000815260040180806020018281038252600f8152602001807f506f6c6c2069732065787069726564000000000000000000000000000000000081525060200191505060405180910390fd5b6000339050600460008273ffffffffffffffffffffffffffffffffffffffff1673ffffffffffffffffffffffffffffffffffffffff168152602001908152602001600020600085815260200190815260200160002060009054906101000a900460ff1615610d03576040517f08c379a00000000000000000000000000000000000000000000000000000000081526004018080602001828103825260168152602001807f596f7527766520706f6c6c656420666f7220746869730000000000000000000081525060200191505060405180910390fd5b6000806000868152602001908152602001600020905080600401829080600181540180825580915050600190039060005260206000200160009091909190916101000a81548173ffffffffffffffffffffffffffffffffffffffff021916908373ffffffffffffffffffffffffffffffffffffffff160217905550600360008373ffffffffffffffffffffffffffffffffffffffff1673ffffffffffffffffffffffffffffffffffffffff1681526020019081526020016000208590806001815401808255809150506001900390600052602060002001600090919091909150556001600460008473ffffffffffffffffffffffffffffffffffffffff1673ffffffffffffffffffffffffffffffffffffffff168152602001908152602001600020600087815260200190815260200160002060006101000a81548160ff02191690831515021790555060019350505050919050565b6000438211610ed0576040517f08c379a00000000000000000000000000000000000000000000000000000000081526004018080602001828103825260158152602001807f496e76616c6964206578706972656420626c6f636b000000000000000000000081525060200191505060405180910390fd5b6000339050600060055490506001600560008282540192505081905550600082828a8a88604051602001808673ffffffffffffffffffffffffffffffffffffffff1673ffffffffffffffffffffffffffffffffffffffff1660601b81526014018581526020018484808284378083019250505082815260200195505050505050604051602081830303815290604052805190602001209050600260008473ffffffffffffffffffffffffffffffffffffffff1673ffffffffffffffffffffffffffffffffffffffff168152602001908152602001600020600082815260200190815260200160002060009054906101000a900460ff1615611039576040517f08c379a000000000000000000000000000000000000000000000000000000000815260040180806020018281038252600f8152602001807f506f6c6c2069732065786973746564000000000000000000000000000000000081525060200191505060405180910390fd5b61104161164f565b89898080601f016020809104026020016040519081016040528093929190818152602001838380828437600081840152601f19601f82011690508083019250505050505050816000018190525087878080601f016020809104026020016040519081016040528093929190818152602001838380828437600081840152601f19601f8201169050808301925050505050505081602001819052508581604001818152505083816060019073ffffffffffffffffffffffffffffffffffffffff16908173ffffffffffffffffffffffffffffffffffffffff168152505080600080848152602001908152602001600020600082015181600001908051906020019061114c929190611694565b506020820151816001019080519060200190611169929190611694565b506040820151816002015560608201518160030160006101000a81548173ffffffffffffffffffffffffffffffffffffffff021916908373ffffffffffffffffffffffffffffffffffffffff16021790555060808201518160040190805190602001906111d7929190611714565b50905050600160008573ffffffffffffffffffffffffffffffffffffffff1673ffffffffffffffffffffffffffffffffffffffff1681526020019081526020016000208290806001815401808255809150506001900390600052602060002001600090919091909150556001600260008673ffffffffffffffffffffffffffffffffffffffff1673ffffffffffffffffffffffffffffffffffffffff168152602001908152602001600020600084815260200190815260200160002060006101000a81548160ff0219169083151502179055506006829080600181540180825580915050600190039060005260206000200160009091909190915055600194505050505095945050505050565b606080600060606000806112f661164f565b6000808981526020019081526020016000206040518060a0016040529081600082018054600181600116156101000203166002900480601f0160208091040260200160405190810160405280929190818152602001828054600181600116156101000203166002900480156113ac5780601f10611381576101008083540402835291602001916113ac565b820191906000526020600020905b81548152906001019060200180831161138f57829003601f168201915b50505050508152602001600182018054600181600116156101000203166002900480601f01602080910402602001604051908101604052809291908181526020018280546001816001161561010002031660029004801561144e5780601f106114235761010080835404028352916020019161144e565b820191906000526020600020905b81548152906001019060200180831161143157829003601f168201915b50505050508152602001600282015481526020016003820160009054906101000a900473ffffffffffffffffffffffffffffffffffffffff1673ffffffffffffffffffffffffffffffffffffffff1673ffffffffffffffffffffffffffffffffffffffff1681526020016004820180548060200260200160405190810160405280929190818152602001828054801561153c57602002820191906000526020600020905b8160009054906101000a900473ffffffffffffffffffffffffffffffffffffffff1673ffffffffffffffffffffffffffffffffffffffff16815260200190600101908083116114f2575b50505050508152505090508060000151965080602001519550806060015194508060800151935061156c886115fb565b80935081945050505091939550919395565b6006818154811061158b57fe5b906000526020600020016000915090505481565b600360205281600052604060002081815481106115b857fe5b90600052602060002001600091509150505481565b600160205281600052604060002081815481106115e657fe5b90600052602060002001600091509150505481565b600080600080600085815260200190815260200160002060020154430390506000811315611629578061162c565b60005b925060008085815260200190815260200160002060020154431015915050915091565b6040518060a00160405280606081526020016060815260200160008152602001600073ffffffffffffffffffffffffffffffffffffffff168152602001606081525090565b828054600181600116156101000203166002900490600052602060002090601f016020900481019282601f106116d557805160ff1916838001178555611703565b82800160010185558215611703579182015b828111156117025782518255916020019190600101906116e7565b5b509050611710919061179e565b5090565b82805482825590600052602060002090810192821561178d579160200282015b8281111561178c5782518260006101000a81548173ffffffffffffffffffffffffffffffffffffffff021916908373ffffffffffffffffffffffffffffffffffffffff16021790555091602001919060010190611734565b5b50905061179a91906117c3565b5090565b6117c091905b808211156117bc5760008160009055506001016117a4565b5090565b90565b61180391905b808211156117ff57600081816101000a81549073ffffffffffffffffffffffffffffffffffffffff0219169055506001016117c9565b5090565b9056fea26469706673582212204c402ac4a80aa196b2c073e39c5c35f093ce402b0dda4b709b8ff70f4f55350264736f6c634300060b0033",
  "immutableReferences": {},
  "source": "// SPDX-License-Identifier: MIT\npragma solidity >=0.4.22 <0.8.0;\n\ncontract Polling {\n    struct Poll {\n        string topic;\n        string description;\n        uint256 expiredBlock;\n        address sponsor;\n        address[] voters;\n    }\n    // track poll by poll id\n    mapping(bytes32 => Poll) public polls;\n    // track poll id for sponsors\n    mapping(address => bytes32[]) public pollIdOfSponsor;\n    mapping(address => mapping(bytes32 => bool)) private sponsorRaised;\n    // track poll id being polled by voter\n    mapping(address => bytes32[]) public pollIdOfVoter;\n    mapping(address => mapping(bytes32 => bool)) private voterPolled;\n\n    uint256 public totalPollsCount;\n    bytes32[] public pollList;\n\n    constructor() public {\n        totalPollsCount = 0;\n    }\n\n    function sponsorCreatePoll(\n        string calldata _topic,\n        string calldata _description,\n        uint256 _expiredBlock\n    ) external returns (bool) {\n        require(_expiredBlock > block.number, \"Invalid expired block\");\n\n        address _sponsor = msg.sender;\n\n        uint256 _totalPollsCount = totalPollsCount;\n        totalPollsCount += 1;\n\n        bytes32 _pollId = keccak256(\n            abi.encodePacked(_sponsor, _totalPollsCount, _topic, _expiredBlock)\n        );\n\n        require(!sponsorRaised[_sponsor][_pollId], \"Poll is existed\");\n\n        Poll memory _poll;\n        _poll.topic = _topic;\n        _poll.description = _description;\n        _poll.expiredBlock = _expiredBlock;\n        _poll.sponsor = _sponsor;\n\n        polls[_pollId] = _poll;\n        pollIdOfSponsor[_sponsor].push(_pollId);\n        sponsorRaised[_sponsor][_pollId] = true;\n\n        pollList.push(_pollId);\n\n        return true;\n    }\n\n    function voterPolls(bytes32 _pollId) external returns (bool) {\n        require(polls[_pollId].sponsor != address(0), \"Poll isn't existed\");\n\n        (, bool _expired) = getPollStatus(_pollId);\n        require(!_expired, \"Poll is expired\");\n\n        address _voter = msg.sender;\n        require(!voterPolled[_voter][_pollId], \"You've polled for this\");\n\n        Poll storage _poll = polls[_pollId];\n\n        _poll.voters.push(_voter);\n        pollIdOfVoter[_voter].push(_pollId);\n        voterPolled[_voter][_pollId] = true;\n        return true;\n    }\n\n    function getPollInformation(bytes32 _pollId)\n        public\n        view\n        returns (\n            string memory _topic,\n            string memory _description,\n            address _sponsor,\n            address[] memory _voters,\n            uint256 _blockLeft,\n            bool _expired\n        )\n    {\n        Poll memory poll = polls[_pollId];\n\n        _topic = poll.topic;\n        _description = poll.description;\n        _sponsor = poll.sponsor;\n        _voters = poll.voters;\n        (_blockLeft, _expired) = getPollStatus(_pollId);\n    }\n\n    function getPollStatus(bytes32 _pollId)\n        internal\n        view\n        returns (uint256 _blockLeft, bool _expired)\n    {\n        int256 blockLeft = int256(block.number - polls[_pollId].expiredBlock);\n        _blockLeft = blockLeft <= 0 ? 0 : uint256(blockLeft);\n        _expired = block.number >= polls[_pollId].expiredBlock;\n    }\n\n    function getPollList() public view returns (bytes32[] memory) {\n        return pollList;\n    }\n\n    function getSponsorsPollList() public view returns (bytes32[] memory) {\n        return pollIdOfSponsor[msg.sender];\n    }\n\n    function getVotersPollList() public view returns (bytes32[] memory) {\n        return pollIdOfVoter[msg.sender];\n    }\n\n    function isVoted(bytes32 _pollId) public view returns (bool) {\n        return voterPolled[msg.sender][_pollId];\n    }\n}\n",
  "sourcePath": "/home/kobechao/projects/polling/contracts/Polling.sol",
  "compiler": {
    "name": "solc",
    "version": "0.6.11+commit.5ef660b1.Emscripten.clang"
  },
  "schemaVersion": "3.2.5",
  "updatedAt": "2020-12-18T08:46:05.846Z",
  "networkType": "ethereum",
  "devdoc": {
    "kind": "dev",
    "methods": {},
    "version": 1
  },
  "userdoc": {
    "kind": "user",
    "methods": {},
    "version": 1
  }
}